{
  "_format": "hh-sol-artifact-1",
  "contractName": "RentalPayments",
  "sourceName": "contracts/RentalPayments.sol",
  "abi": [
    {
      "inputs": [],
      "stateMutability": "nonpayable",
      "type": "constructor"
    },
    {
      "anonymous": false,
      "inputs": [
        {
          "indexed": false,
          "internalType": "uint256",
          "name": "bookingId",
          "type": "uint256"
        }
      ],
      "name": "DisputeRaised",
      "type": "event"
    },
    {
      "anonymous": false,
      "inputs": [
        {
          "indexed": false,
          "internalType": "uint256",
          "name": "bookingId",
          "type": "uint256"
        },
        {
          "indexed": false,
          "internalType": "bool",
          "name": "favorRenter",
          "type": "bool"
        }
      ],
      "name": "DisputeResolved",
      "type": "event"
    },
    {
      "anonymous": false,
      "inputs": [
        {
          "indexed": false,
          "internalType": "uint256",
          "name": "bookingId",
          "type": "uint256"
        },
        {
          "indexed": true,
          "internalType": "address",
          "name": "renter",
          "type": "address"
        },
        {
          "indexed": false,
          "internalType": "uint256",
          "name": "amount",
          "type": "uint256"
        }
      ],
      "name": "PaymentInitiated",
      "type": "event"
    },
    {
      "anonymous": false,
      "inputs": [
        {
          "indexed": false,
          "internalType": "uint256",
          "name": "bookingId",
          "type": "uint256"
        },
        {
          "indexed": true,
          "internalType": "address",
          "name": "owner",
          "type": "address"
        },
        {
          "indexed": false,
          "internalType": "uint256",
          "name": "amount",
          "type": "uint256"
        }
      ],
      "name": "PaymentReleased",
      "type": "event"
    },
    {
      "inputs": [
        {
          "internalType": "address",
          "name": "manager",
          "type": "address"
        }
      ],
      "name": "addManager",
      "outputs": [],
      "stateMutability": "nonpayable",
      "type": "function"
    },
    {
      "inputs": [],
      "name": "bookingCounter",
      "outputs": [
        {
          "internalType": "uint256",
          "name": "",
          "type": "uint256"
        }
      ],
      "stateMutability": "view",
      "type": "function"
    },
    {
      "inputs": [
        {
          "internalType": "uint256",
          "name": "",
          "type": "uint256"
        }
      ],
      "name": "bookings",
      "outputs": [
        {
          "internalType": "address",
          "name": "renter",
          "type": "address"
        },
        {
          "internalType": "address",
          "name": "owner",
          "type": "address"
        },
        {
          "internalType": "uint256",
          "name": "amount",
          "type": "uint256"
        },
        {
          "internalType": "uint256",
          "name": "startTime",
          "type": "uint256"
        },
        {
          "internalType": "uint256",
          "name": "endTime",
          "type": "uint256"
        },
        {
          "internalType": "bool",
          "name": "isDisputeRaised",
          "type": "bool"
        },
        {
          "internalType": "bool",
          "name": "isResolved",
          "type": "bool"
        }
      ],
      "stateMutability": "view",
      "type": "function"
    },
    {
      "inputs": [],
      "name": "getAllRentalPayments",
      "outputs": [
        {
          "components": [
            {
              "internalType": "address",
              "name": "renter",
              "type": "address"
            },
            {
              "internalType": "address",
              "name": "owner",
              "type": "address"
            },
            {
              "internalType": "uint256",
              "name": "amount",
              "type": "uint256"
            },
            {
              "internalType": "uint256",
              "name": "startTime",
              "type": "uint256"
            },
            {
              "internalType": "uint256",
              "name": "endTime",
              "type": "uint256"
            },
            {
              "internalType": "bool",
              "name": "isDisputeRaised",
              "type": "bool"
            },
            {
              "internalType": "bool",
              "name": "isResolved",
              "type": "bool"
            }
          ],
          "internalType": "struct RentalPayments.Booking[]",
          "name": "",
          "type": "tuple[]"
        }
      ],
      "stateMutability": "view",
      "type": "function"
    },
    {
      "inputs": [
        {
          "internalType": "address",
          "name": "owner",
          "type": "address"
        },
        {
          "internalType": "uint256",
          "name": "bookingDuration",
          "type": "uint256"
        }
      ],
      "name": "initiatePayment",
      "outputs": [],
      "stateMutability": "payable",
      "type": "function"
    },
    {
      "inputs": [
        {
          "internalType": "address",
          "name": "",
          "type": "address"
        }
      ],
      "name": "managers",
      "outputs": [
        {
          "internalType": "bool",
          "name": "",
          "type": "bool"
        }
      ],
      "stateMutability": "view",
      "type": "function"
    },
    {
      "inputs": [],
      "name": "mobiFiAdmin",
      "outputs": [
        {
          "internalType": "address",
          "name": "",
          "type": "address"
        }
      ],
      "stateMutability": "view",
      "type": "function"
    },
    {
      "inputs": [
        {
          "internalType": "uint256",
          "name": "bookingId",
          "type": "uint256"
        }
      ],
      "name": "raiseDispute",
      "outputs": [],
      "stateMutability": "nonpayable",
      "type": "function"
    },
    {
      "inputs": [
        {
          "internalType": "uint256",
          "name": "bookingId",
          "type": "uint256"
        }
      ],
      "name": "releasePayment",
      "outputs": [],
      "stateMutability": "nonpayable",
      "type": "function"
    },
    {
      "inputs": [
        {
          "internalType": "address",
          "name": "manager",
          "type": "address"
        }
      ],
      "name": "removeManager",
      "outputs": [],
      "stateMutability": "nonpayable",
      "type": "function"
    },
    {
      "inputs": [
        {
          "internalType": "uint256",
          "name": "bookingId",
          "type": "uint256"
        },
        {
          "internalType": "bool",
          "name": "favorRenter",
          "type": "bool"
        }
      ],
      "name": "resolveDispute",
      "outputs": [],
      "stateMutability": "nonpayable",
      "type": "function"
    }
  ],
  "bytecode": "0x608060405234801561001057600080fd5b50336000806101000a81548173ffffffffffffffffffffffffffffffffffffffff021916908373ffffffffffffffffffffffffffffffffffffffff160217905550611c66806100606000396000f3fe60806040526004361061009c5760003560e01c806388685cd91161006457806388685cd91461017d578063a5c1674e146101a6578063ac18de43146101cf578063bb2272a9146101f8578063d287ac4214610223578063fdff9b4d1461024e5761009c565b80631dab301e146100a15780632d06177a146100e457806334b25ee21461010d578063392c350514610136578063884d906114610161575b600080fd5b3480156100ad57600080fd5b506100c860048036038101906100c39190611161565b61028b565b6040516100db97969594939291906111f9565b60405180910390f35b3480156100f057600080fd5b5061010b60048036038101906101069190611294565b610327565b005b34801561011957600080fd5b50610134600480360381019061012f91906112ed565b61040f565b005b34801561014257600080fd5b5061014b6106f7565b604051610158919061132d565b60405180910390f35b61017b60048036038101906101769190611348565b61071b565b005b34801561018957600080fd5b506101a4600480360381019061019f9190611161565b6109d6565b005b3480156101b257600080fd5b506101cd60048036038101906101c89190611161565b610bed565b005b3480156101db57600080fd5b506101f660048036038101906101f19190611294565b610ddb565b005b34801561020457600080fd5b5061020d610ec4565b60405161021a91906114f2565b60405180910390f35b34801561022f57600080fd5b50610238611093565b6040516102459190611514565b60405180910390f35b34801561025a57600080fd5b5061027560048036038101906102709190611294565b611099565b604051610282919061152f565b60405180910390f35b60026020528060005260406000206000915090508060000160009054906101000a900473ffffffffffffffffffffffffffffffffffffffff16908060010160009054906101000a900473ffffffffffffffffffffffffffffffffffffffff16908060020154908060030154908060040154908060050160009054906101000a900460ff16908060050160019054906101000a900460ff16905087565b60008054906101000a900473ffffffffffffffffffffffffffffffffffffffff1673ffffffffffffffffffffffffffffffffffffffff163373ffffffffffffffffffffffffffffffffffffffff16146103b5576040517f08c379a00000000000000000000000000000000000000000000000000000000081526004016103ac906115a7565b60405180910390fd5b60018060008373ffffffffffffffffffffffffffffffffffffffff1673ffffffffffffffffffffffffffffffffffffffff16815260200190815260200160002060006101000a81548160ff02191690831515021790555050565b60008054906101000a900473ffffffffffffffffffffffffffffffffffffffff1673ffffffffffffffffffffffffffffffffffffffff163373ffffffffffffffffffffffffffffffffffffffff1614806104b9575060011515600160003373ffffffffffffffffffffffffffffffffffffffff1673ffffffffffffffffffffffffffffffffffffffff16815260200190815260200160002060009054906101000a900460ff161515145b6104f8576040517f08c379a00000000000000000000000000000000000000000000000000000000081526004016104ef906115a7565b60405180910390fd5b60006002600084815260200190815260200160002090508060050160009054906101000a900460ff16610560576040517f08c379a000000000000000000000000000000000000000000000000000000000815260040161055790611613565b60405180910390fd5b8060050160019054906101000a900460ff16156105b2576040517f08c379a00000000000000000000000000000000000000000000000000000000081526004016105a99061167f565b60405180910390fd5b60018160050160016101000a81548160ff0219169083151502179055508115610649578060000160009054906101000a900473ffffffffffffffffffffffffffffffffffffffff1673ffffffffffffffffffffffffffffffffffffffff166108fc82600201549081150290604051600060405180830381858888f19350505050158015610643573d6000803e3d6000fd5b506106b9565b8060010160009054906101000a900473ffffffffffffffffffffffffffffffffffffffff1673ffffffffffffffffffffffffffffffffffffffff166108fc82600201549081150290604051600060405180830381858888f193505050501580156106b7573d6000803e3d6000fd5b505b7f5a87909bff68caaaaf0b3fd9c74eeccc928832f879315e5c6fb7a73612f26c0c83836040516106ea92919061169f565b60405180910390a1505050565b60008054906101000a900473ffffffffffffffffffffffffffffffffffffffff1681565b6000341161075e576040517f08c379a000000000000000000000000000000000000000000000000000000000815260040161075590611714565b60405180910390fd5b6000606460053461076f9190611763565b61077991906117d4565b9050600081346107899190611805565b905060008054906101000a900473ffffffffffffffffffffffffffffffffffffffff1673ffffffffffffffffffffffffffffffffffffffff166108fc839081150290604051600060405180830381858888f193505050501580156107f1573d6000803e3d6000fd5b506003600081548092919061080590611839565b91905055506040518060e001604052803373ffffffffffffffffffffffffffffffffffffffff1681526020018573ffffffffffffffffffffffffffffffffffffffff16815260200182815260200142815260200184426108659190611881565b81526020016000151581526020016000151581525060026000600354815260200190815260200160002060008201518160000160006101000a81548173ffffffffffffffffffffffffffffffffffffffff021916908373ffffffffffffffffffffffffffffffffffffffff16021790555060208201518160010160006101000a81548173ffffffffffffffffffffffffffffffffffffffff021916908373ffffffffffffffffffffffffffffffffffffffff16021790555060408201518160020155606082015181600301556080820151816004015560a08201518160050160006101000a81548160ff02191690831515021790555060c08201518160050160016101000a81548160ff0219169083151502179055509050503373ffffffffffffffffffffffffffffffffffffffff167f2f7fe642525d9b234e73785ebf60e0f91cf7c96ef78c0ec4fcfe755a398d93b1600354836040516109c89291906118b5565b60405180910390a250505050565b600060026000838152602001908152602001600020905062093a808160040154610a009190611881565b4211610a41576040517f08c379a0000000000000000000000000000000000000000000000000000000008152600401610a389061192a565b60405180910390fd5b8060050160009054906101000a900460ff1615610a93576040517f08c379a0000000000000000000000000000000000000000000000000000000008152600401610a8a90611996565b60405180910390fd5b8060050160019054906101000a900460ff1615610ae5576040517f08c379a0000000000000000000000000000000000000000000000000000000008152600401610adc90611a02565b60405180910390fd5b60018160050160016101000a81548160ff0219169083151502179055508060010160009054906101000a900473ffffffffffffffffffffffffffffffffffffffff1673ffffffffffffffffffffffffffffffffffffffff166108fc82600201549081150290604051600060405180830381858888f19350505050158015610b70573d6000803e3d6000fd5b508060010160009054906101000a900473ffffffffffffffffffffffffffffffffffffffff1673ffffffffffffffffffffffffffffffffffffffff167f21d71db5be59bb9fa133895586b7404307dd33fb93b16db09dc6f1d9d7d231b0838360020154604051610be19291906118b5565b60405180910390a25050565b60006002600083815260200190815260200160002090508060000160009054906101000a900473ffffffffffffffffffffffffffffffffffffffff1673ffffffffffffffffffffffffffffffffffffffff163373ffffffffffffffffffffffffffffffffffffffff1614610c96576040517f08c379a0000000000000000000000000000000000000000000000000000000008152600401610c8d90611a6e565b60405180910390fd5b80600401544211610cdc576040517f08c379a0000000000000000000000000000000000000000000000000000000008152600401610cd390611ada565b60405180910390fd5b62093a808160040154610cef9190611881565b421115610d31576040517f08c379a0000000000000000000000000000000000000000000000000000000008152600401610d2890611b46565b60405180910390fd5b8060050160009054906101000a900460ff1615610d83576040517f08c379a0000000000000000000000000000000000000000000000000000000008152600401610d7a90611bb2565b60405180910390fd5b60018160050160006101000a81548160ff0219169083151502179055507f04901f83201c8724eadf084436db8aa391820bae6d11f9f78a17edb6f2eef3cf82604051610dcf9190611514565b60405180910390a15050565b60008054906101000a900473ffffffffffffffffffffffffffffffffffffffff1673ffffffffffffffffffffffffffffffffffffffff163373ffffffffffffffffffffffffffffffffffffffff1614610e69576040517f08c379a0000000000000000000000000000000000000000000000000000000008152600401610e60906115a7565b60405180910390fd5b6000600160008373ffffffffffffffffffffffffffffffffffffffff1673ffffffffffffffffffffffffffffffffffffffff16815260200190815260200160002060006101000a81548160ff02191690831515021790555050565b6060600060035467ffffffffffffffff811115610ee457610ee3611bd2565b5b604051908082528060200260200182016040528015610f1d57816020015b610f0a6110b9565b815260200190600190039081610f025790505b5090506000600190505b600354811161108b57600260008281526020019081526020016000206040518060e00160405290816000820160009054906101000a900473ffffffffffffffffffffffffffffffffffffffff1673ffffffffffffffffffffffffffffffffffffffff1673ffffffffffffffffffffffffffffffffffffffff1681526020016001820160009054906101000a900473ffffffffffffffffffffffffffffffffffffffff1673ffffffffffffffffffffffffffffffffffffffff1673ffffffffffffffffffffffffffffffffffffffff1681526020016002820154815260200160038201548152602001600482015481526020016005820160009054906101000a900460ff161515151581526020016005820160019054906101000a900460ff1615151515815250508260018361105c9190611805565b8151811061106d5761106c611c01565b5b6020026020010181905250808061108390611839565b915050610f27565b508091505090565b60035481565b60016020528060005260406000206000915054906101000a900460ff1681565b6040518060e00160405280600073ffffffffffffffffffffffffffffffffffffffff168152602001600073ffffffffffffffffffffffffffffffffffffffff1681526020016000815260200160008152602001600081526020016000151581526020016000151581525090565b600080fd5b6000819050919050565b61113e8161112b565b811461114957600080fd5b50565b60008135905061115b81611135565b92915050565b60006020828403121561117757611176611126565b5b60006111858482850161114c565b91505092915050565b600073ffffffffffffffffffffffffffffffffffffffff82169050919050565b60006111b98261118e565b9050919050565b6111c9816111ae565b82525050565b6111d88161112b565b82525050565b60008115159050919050565b6111f3816111de565b82525050565b600060e08201905061120e600083018a6111c0565b61121b60208301896111c0565b61122860408301886111cf565b61123560608301876111cf565b61124260808301866111cf565b61124f60a08301856111ea565b61125c60c08301846111ea565b98975050505050505050565b611271816111ae565b811461127c57600080fd5b50565b60008135905061128e81611268565b92915050565b6000602082840312156112aa576112a9611126565b5b60006112b88482850161127f565b91505092915050565b6112ca816111de565b81146112d557600080fd5b50565b6000813590506112e7816112c1565b92915050565b6000806040838503121561130457611303611126565b5b60006113128582860161114c565b9250506020611323858286016112d8565b9150509250929050565b600060208201905061134260008301846111c0565b92915050565b6000806040838503121561135f5761135e611126565b5b600061136d8582860161127f565b925050602061137e8582860161114c565b9150509250929050565b600081519050919050565b600082825260208201905092915050565b6000819050602082019050919050565b6113bd816111ae565b82525050565b6113cc8161112b565b82525050565b6113db816111de565b82525050565b60e0820160008201516113f760008501826113b4565b50602082015161140a60208501826113b4565b50604082015161141d60408501826113c3565b50606082015161143060608501826113c3565b50608082015161144360808501826113c3565b5060a082015161145660a08501826113d2565b5060c082015161146960c08501826113d2565b50505050565b600061147b83836113e1565b60e08301905092915050565b6000602082019050919050565b600061149f82611388565b6114a98185611393565b93506114b4836113a4565b8060005b838110156114e55781516114cc888261146f565b97506114d783611487565b9250506001810190506114b8565b5085935050505092915050565b6000602082019050818103600083015261150c8184611494565b905092915050565b600060208201905061152960008301846111cf565b92915050565b600060208201905061154460008301846111ea565b92915050565b600082825260208201905092915050565b7f4e6f7420617574686f72697a6564000000000000000000000000000000000000600082015250565b6000611591600e8361154a565b915061159c8261155b565b602082019050919050565b600060208201905081810360008301526115c081611584565b9050919050565b7f4e6f206469737075746520726169736564000000000000000000000000000000600082015250565b60006115fd60118361154a565b9150611608826115c7565b602082019050919050565b6000602082019050818103600083015261162c816115f0565b9050919050565b7f4469737075746520616c7265616479207265736f6c7665640000000000000000600082015250565b600061166960188361154a565b915061167482611633565b602082019050919050565b600060208201905081810360008301526116988161165c565b9050919050565b60006040820190506116b460008301856111cf565b6116c160208301846111ea565b9392505050565b7f5061796d656e74206d7573742062652067726561746572207468616e20300000600082015250565b60006116fe601e8361154a565b9150611709826116c8565b602082019050919050565b6000602082019050818103600083015261172d816116f1565b9050919050565b7f4e487b7100000000000000000000000000000000000000000000000000000000600052601160045260246000fd5b600061176e8261112b565b91506117798361112b565b92508282026117878161112b565b9150828204841483151761179e5761179d611734565b5b5092915050565b7f4e487b7100000000000000000000000000000000000000000000000000000000600052601260045260246000fd5b60006117df8261112b565b91506117ea8361112b565b9250826117fa576117f96117a5565b5b828204905092915050565b60006118108261112b565b915061181b8361112b565b925082820390508181111561183357611832611734565b5b92915050565b60006118448261112b565b91507fffffffffffffffffffffffffffffffffffffffffffffffffffffffffffffffff820361187657611875611734565b5b600182019050919050565b600061188c8261112b565b91506118978361112b565b92508282019050808211156118af576118ae611734565b5b92915050565b60006040820190506118ca60008301856111cf565b6118d760208301846111cf565b9392505050565b7f4469737075746520706572696f64206e6f7420656e6465640000000000000000600082015250565b600061191460188361154a565b915061191f826118de565b602082019050919050565b6000602082019050818103600083015261194381611907565b9050919050565b7f4469737075746520726169736564000000000000000000000000000000000000600082015250565b6000611980600e8361154a565b915061198b8261194a565b602082019050919050565b600060208201905081810360008301526119af81611973565b9050919050565b7f5061796d656e7420616c72656164792072656c65617365640000000000000000600082015250565b60006119ec60188361154a565b91506119f7826119b6565b602082019050919050565b60006020820190508181036000830152611a1b816119df565b9050919050565b7f4f6e6c792072656e7465722063616e2072616973652061206469737075746500600082015250565b6000611a58601f8361154a565b9150611a6382611a22565b602082019050919050565b60006020820190508181036000830152611a8781611a4b565b9050919050565b7f426f6f6b696e6720706572696f64206e6f7420656e6465640000000000000000600082015250565b6000611ac460188361154a565b9150611acf82611a8e565b602082019050919050565b60006020820190508181036000830152611af381611ab7565b9050919050565b7f4469737075746520706572696f642068617320656e6465640000000000000000600082015250565b6000611b3060188361154a565b9150611b3b82611afa565b602082019050919050565b60006020820190508181036000830152611b5f81611b23565b9050919050565b7f4469737075746520616c72656164792072616973656400000000000000000000600082015250565b6000611b9c60168361154a565b9150611ba782611b66565b602082019050919050565b60006020820190508181036000830152611bcb81611b8f565b9050919050565b7f4e487b7100000000000000000000000000000000000000000000000000000000600052604160045260246000fd5b7f4e487b7100000000000000000000000000000000000000000000000000000000600052603260045260246000fdfea264697066735822122097cbedcca31891a8739700ad02c38216d11bf67189ffc9ba0f85781f11395e3f64736f6c63430008180033",
  "linkReferences": {},
  "deployedLinkReferences": {}
}